:100000000C9446000C9465000C9465000C946500FB
:100010000C9465000C9465000C9465000C946500CC
:100020000C9465000C9465000C9465000C946500BC
:100030000C9465000C94DE000C9465000C94650033
:100040000C9465000C9465000C9465000C9465009C
:100050000C9465000C9465000C9465000C9465008C
:100060000C9465000C9465000C9465000C9465007C
:100070000C9465000C9465000C9465000C9465006C
:100080000C9465000C9465000C94650011241FBE4F
:10009000CFEFD0E4DEBFCDBF11E0A0E0B1E0E4E8F7
:1000A000F9E000E00BBF02C007900D92AE35B1073A
:1000B000D9F721E0AEE5B1E001C01D92AA36B20742
:1000C000E1F70E9402030C94C0040C940000CF934B
:1000D000DF9300D01F92CDB7DEB789837B836A831D
:1000E00089818A3031F48A819B81BC018DE00E9434
:1000F000670080EC90E0FC018081882F90E08072A6
:100100009927892BB1F386EC90E02981FC012083AB
:1001100080E090E00F900F900F90DF91CF910895C5
:10012000CF93DF93CDB7DEB781E890E02BE0FC0101
:10013000208388E890E02DE730E0FC0131832083C4
:100140008FE690E022E0FC01208384E890E0FC014F
:100150001182108280910E0190910F01A0911001E7
:10016000B091110180935F0190936001A0936101B0
:10017000B09362018FE590E02FE530E0F901208136
:100180002068FC0120830000DF91CF910895CF9378
:10019000DF93CDB7DEB781E890E0FC01108200006C
:1001A000DF91CF910895CF93DF93CDB7DEB781E094
:1001B00080935E010000DF91CF9108951F920F920E
:1001C00000905F000F92112400905B000F922F931C
:1001D0003F934F935F936F937F938F939F93AF93CF
:1001E000BF93EF93FF93CF93DF93CDB7DEB78091AB
:1001F0005F0190916001A0916101B091620101974E
:10020000A109B10980935F0190936001A0936101FE
:10021000B093620180915F0190916001A0916101B2
:10022000B0916201892B8A2B8B2B91F40E94D30011
:1002300080910E0190910F01A0911001B0911101D8
:1002400080935F0190936001A0936101B09362017C
:100250000000DF91CF91FF91EF91BF91AF919F91FE
:100260008F917F916F915F914F913F912F910F905F
:1002700000925B000F9000925F000F901F90189506
:10028000CF93DF9300D000D0CDB7DEB769837A83F8
:100290008B839C8389819A81AB81BC8180930E0181
:1002A00090930F01A0931001B093110180910E0162
:1002B00090910F01A0911001B091110180935F0105
:1002C00090936001A0936101B093620100000F90D0
:1002D0000F900F900F90DF91CF9108950F931F9380
:1002E000CF93DF9300D000D0CDB7DEB769837A8398
:1002F0008B839C838091640190916501A09166013C
:10030000B09167019C01AD0169817A818B819C81EB
:100310000E942C03882309F477C020E030E0A90173
:1003200069817A818B819C810E942C03882351F4FE
:1003300081E990E021E930E0F90120812870FC0199
:10034000208309C081E990E021E930E0F9012081B2
:100350002360FC01208328E539E344E75FE36981FA
:100360007A818B819C810E942C03882344F488E944
:1003700090E02FEF3FEFFC013183208334C020E079
:1003800034E244EF56E469817A818B819C810E943A
:100390004E04181634F488E990E0FC0111821082B2
:1003A00022C008E910E020E030E040E053E4698139
:1003B0007A818B819C810E945304DC01CB019C01DA
:1003C000AD0160E074E284EF9AE40E943103DC0145
:1003D000CB01BC01CD010E94A303DC01CB0101973D
:1003E000F8019183808384E990E0FC0111821082FE
:1003F00089819A81AB81BC8180936401909365016E
:10040000A0936601B093670100000F900F900F90CA
:100410000F90DF91CF911F910F910895CF93DF93AC
:10042000CDB7DEB780E990E020E4FC01208381E9CC
:1004300090E02BE0FC01208360E070E0CB010E94A3
:100440006E010000DF91CF910895CF93DF93CDB778
:10045000DEB780E990E0FC01108281E990E0FC01C8
:1004600010820000DF91CF910895CF93DF93CDB735
:10047000DEB7CF54D1090FB6F894DEBF0FBECDBFA3
:1004800080E290E0FC0180818095809363011A8274
:1004900019821B8284E3E2E1F1E0DE01149601900F
:1004A0000D928A95E1F788E1E6E4F1E0DE01D89665
:1004B00001900D928A95E1F7809168019091690110
:1004C0008130910581F08130910530F082309105C5
:1004D000E1F0039709F158C081E090E09093690141
:1004E0008093680151C080916301813039F482E0CA
:1004F00090E0909369018093680146C081E090E0AC
:1005000090936901809368013FC083E090E09093ED
:1005100069018093680138C08B81282F30E0898180
:100520009A81880F991FAE014F5F5F4F840F951F0F
:10053000C796FC01808191812817390754F48B817B
:100540008F5F8B8383E090E09093690180936801D3
:100550001AC089819A810D9751F41B821A821982DF
:1005600081E090E090936901809368010CC01B8248
:1005700089819A8101969A83898382E090E09093A1
:100580006901809368010000809168019091690180
:100590008130910549F08130910540F1823091051B
:1005A00049F00397E9F023C060E070E0CB010E94BE
:1005B0006E011DC089819A81880F991F880F991F2C
:1005C0009E012F5F3F4F820F931F0396FC01808196
:1005D0009181A281B381BC01CD010E946E0107C04F
:1005E00060E070E0CB010E946E0101C000000000DD
:1005F000C15BDF4F0FB6F894DEBF0FBECDBFDF91FA
:10060000CF910895CF93DF93CDB7DEB781E290E02D
:10061000FC01108282E290E02FEFFC01208384E253
:1006200090E02FEFFC01208385E290E0FC01108236
:1006300064E670E080E090E00E9440010E9490003B
:100640000E940E020E943502000080915E01882304
:10065000E1F310925E01F6CF0E94D90308F481E025
:1006600008950E9445030C9414040E940D0458F050
:100670000E94060440F029F45F3F29F00C94FD032A
:1006800051110C9448040C9403040E94250468F34F
:100690009923B1F3552391F3951B550BBB27AA273B
:1006A00062177307840738F09F5F5F4F220F331F75
:1006B000441FAA1FA9F335D00E2E3AF0E0E832D03D
:1006C00091505040E695001CCAF72BD0FE2F29D040
:1006D000660F771F881FBB1F261737074807AB0712
:1006E000B0E809F0BB0B802DBF01FF2793585F4F87
:1006F0003AF09E3F510578F00C94FD030C944804A9
:100700005F3FE4F3983ED4F3869577956795B79568
:10071000F7959F5FC9F7880F911D9695879597F973
:100720000895E1E0660F771F881FBB1F62177307EC
:100730008407BA0720F0621B730B840BBA0BEE1F01
:1007400088F7E09508950E94AA036894B1110C946B
:10075000480408950E942D0488F09F5798F0B92FFF
:100760009927B751B0F0E1F0660F771F881F991FE6
:100770001AF0BA95C9F714C0B13091F00E9447043D
:10078000B1E008950C944704672F782F8827B85F4D
:1007900039F0B93FCCF3869577956795B395D9F73E
:1007A0003EF490958095709561957F4F8F4F9F4F48
:1007B0000895990F0008550FAA0BE0E8FEEF1616F2
:1007C0001706E807F907C0F012161306E407F50745
:1007D00098F0621B730B840B950B39F40A2661F0B9
:1007E000232B242B252B21F408950A2609F4A1405C
:1007F000A6958FEF811D811D089597F99F6780E869
:1008000070E060E008959FEF80EC089500240A9462
:100810001616170618060906089500240A941216DB
:100820001306140605060895092E0394000C11F40E
:10083000882352F0BB0F40F4BF2B11F460FF04C0BB
:100840006F5F7F4F8F4F9F4F089557FD9058440F14
:10085000551F59F05F3F71F04795880F97FB991F1F
:1008600061F09F3F79F087950895121613061406DC
:10087000551FF2CF4695F1DF08C016161706180669
:10088000991FF1CF86957105610508940895E89444
:10089000BB2766277727CB0197F908950E94D903D4
:1008A00008F48FEF08950E9466040C9414040E94CB
:1008B000060438F00E940D0420F0952311F00C94EA
:1008C000FD030C94030411240C9448040E94250495
:1008D00070F3959FC1F3950F50E0551F629FF00193
:1008E000729FBB27F00DB11D639FAA27F00DB11DAC
:1008F000AA1F649F6627B00DA11D661F829F222735
:10090000B00DA11D621F739FB00DA11D621F839FBB
:10091000A00D611D221F749F3327A00D611D231F91
:10092000849F600D211D822F762F6A2F11249F57DF
:1009300050409AF0F1F088234AF0EE0FFF1FBB1FE2
:10094000661F771F881F91505040A9F79E3F5105A1
:1009500080F00C94FD030C9448045F3FE4F3983E50
:10096000D4F3869577956795B795F795E7959F5F4B
:10097000C1F7FE2B880F911D9695879597F90895DD
:04098000F894FFCF19
:1009840000000002000000006700000000000100F9
:10099400000000D002441FD5124400D002441FD5E9
:1009A400124400D002441FD5124400D002441FD583
:1009B400124400D002441FD5124400D00244000067
:1009C400DC430000DC4301000100010001000100E0
:0E09D4000100010001000000000005001900F4
:00000001FF
